:060000000A128A15AE2E63
:10000C0090308312031398002030831698001F3011
:10001C00990083120C1608007208FF007108840006
:10002C000A168A1100260A128A11003803190800D0
:10003C007208FF00710884000A168A1100260A1241
:10004C008A112E200A128A11F10A0319F20A1228B7
:10005C00F000831203130C1E2F28700899000C1249
:10006C000800F9017908A03E840083138001F90A85
:10007C0028307902031C3828C02108118316081176
:10008C006830F600E430F500F50B4A28F60B4A28E8
:10009C006400831603130815FA01C021081D6D288E
:1000AC00FA0A582859287A08503A031D5328032174
:1000BC000A128A113430F3009F30F40011210034FD
:1000CC00FA0A682869287A08B43A03190034C0215E
:1000DC00081978286628FA0A732874287A08503A7E
:1000EC0003190034C02108197128FB01C021081D17
:1000FC007C2810168E018F011014081983281010FB
:10010C000E08F700F8010F08F500F6010830FF00A3
:10011C000310F50DF60DFF0B8E287508F704760805
:10012C00F8040310F70DF80D7808803AFF008030C2
:10013C007F02031DA328383077027808031CB728E8
:10014C00803AFF0080307F02031DAE2846307702D4
:10015C000318B6287B08A03E840083138001C728AF
:10016C007808803AFF0080307F02031DBF2897304B
:10017C007702031CC7287B08A03E840083138001F0
:10018C00800AFB0A28307B02031C7C28C021E10179
:10019C00E001FC017C08A03E84008313000BE428E2
:1001AC000130F5007C08073C013EDE280310F50DFC
:1001BC00FF3E031DDC287508C021E004FC0A083052
:1001CC007C02031CD028FD017D08B03E8400000B8E
:1001DC00FD280130F5007D08073C013EF72803108F
:1001EC00F50DFF3E031DF5287508C021E104FD0A3D
:1001FC0008307D0203180134EA2801309B210A12D1
:10020C008A110B30F4006230F300F30B0B29F40B62
:10021C000B29640008007408C021FF0073088400D7
:10022C000A168A1100260A128A11003803190800CE
:10023C007408FF00730884000A168A1100260A123B
:10024C008A112E210A128A11F30A0319F40A1129B0
:10025C00F20088140F3088057208F0398804872161
:10026C000A128A110F308805720EF039880487291A
:10027C00C021B9210A128A118316B9210A128A11D6
:10028C000F30831288053030880487210A128A11B6
:10029C00F301F401AC210A128A11031C50290F300E
:1002AC00C02188053030880487210A128A110F304A
:1002BC0088053030880487210A128A11F301F40171
:1002CC00AC210A128A11031C66290F30C021880543
:1002DC00881687210A128A11F301F401AC210A1243
:1002EC008A11031C742928309B210A128A110C30A4
:1002FC009B210A128A1101309B210A128A110630A5
:10030C009B290814F001F101F00A0319F10A710894
:10031C00803AFF0081307F02031D9629F430700271
:10032C00031C8A29C02108100800F200C021881083
:10033C000F3088057208F039880487210A128A1157
:10034C000F308805720EF03988048729F30A0319D7
:10035C00F40A7408803AFF0081307F02031D080004
:10036C00F430730208000810881008128812081361
:10037C0088130800831203130800063083169F00AD
:10038C00103087008501880189010A128A155926C7
:10039C000A128A110A128A11F9260A128A110A12F1
:1003AC008A1182270A128A111230F0009630F1005D
:1003BC000C30F2001030F3002030F4007F30F500E8
:1003CC000A128A1562260A128A116A30AD009F3011
:1003DC00AE00AF01B0010A128A1111240A128A115F
:1003EC009030AD009F30AE00AF010230B0000A1269
:1003FC008A1111240A128A115E30AD009F30AE00B2
:10040C00AF010430B0000A128A1111240A128A11A9
:10041C008830AD009F30AE00AF010630B0000A123C
:10042C008A1111240A128A113D30C800A530C70068
:10043C006630C600C60B202AC70B202AC80B202A00
:10044C00272A00300A128A11A3270A128A119E3019
:10045C00AD009F30AE001E30AF00B0010A128A1101
:10046C0011240A128A111030D300D4018312031301
:10047C00A901AA011030AB00AC017F30AD00AE0178
:10048C005408B0005308AF00B101B10A0A128A1126
:10049C009E250A128A110B3083120313C8001C30DC
:1004AC00C7006330C600C60B592AC70B592AC80BA4
:1004BC00592A6400043083120313D3070318D40A97
:1004CC005408803AFF0080307F02031D6F2A4030B1
:1004DC005302031C3C2A3D3083120313C800A53081
:1004EC00C7006630C600C60B792AC70B792AC80B21
:1004FC00792A802AD5298030F3009F30F4000A1223
:10050C008A1111210A128A11C0300A128A119B21F8
:10051C000A128A111230F3009F30F4000A128A1169
:10052C0011210A128A11DB2ADA0A0319DB0A5A088A
:10053C00FA3A5B04031DDB2AA930F1009F30F2006C
:10054C000A128A1112200A128A11D501D6018312BD
:10055C0003135508493E8400831300080A128A11BC
:10056C002E200A128A11D50A0319D60A5608803A87
:10057C00FF0080307F02031DC52A04305502031C86
:10058C00AD2A30300A128A112E200A128A115430E8
:10059C000A128A112E200A128A110A300A128A11A2
:1005AC002E200A128A11DA01DB010A128A110321A8
:1005BC000A128A110A128A1137200A128A11003A79
:1005CC00031D812A9830F3009F30F4000A128A111F
:1005DC0011210A128A118A300A128A119B210A12DD
:1005EC008A110A30F00060080A128A1577260A125E
:1005FC008A11303E0A128A112E210A128A110A30EF
:10060C00F00060080A128A1577260A128A11303E09
:10061C00C9000A30F00060080A128A1592260A12E4
:10062C008A11303E0A128A112E210A128A110A30BE
:10063C00F00060080A128A1577260A128A11303ED9
:10064C00CA00C0300A128A119B210A128A11A430E6
:10065C00F3009F30F4000A128A1111210A128A1138
:10066C00CA300A128A119B210A128A110A30F00030
:10067C0061080A128A1577260A128A11303E0A126C
:10068C008A112E210A128A110A30F00061080A120E
:10069C008A1577260A128A11303ECB000A30F000F8
:1006AC0061080A128A1592260A128A11303E0A1221
:1006BC008A112E210A128A110A30F00061080A12DE
:1006CC008A1592260A128A11303ECC000A128A151B
:1006DC00CA260A128A11D9000A128A1103210A1297
:1006EC008A118312031359080A128A112E210A1235
:1006FC008A1159086E3A03199A2AA930F1009F30D1
:10070C00F2000A128A1112200A128A11D701D8019A
:10071C00831203135708493E8400831300080A12FE
:10072C008A112E200A128A11D70A0319D80A5808DE
:10073C00803AFF0080307F02031DA62B0430570245
:10074C00031C8E2B831203135908313A031DB42B4F
:10075C0031300A128A112E200A128A115908323AA3
:10076C00031DBE2B32300A128A112E200A128A1156
:10077C005908333A031DC82B33300A128A112E2024
:10078C000A128A115908343A031DD22B34300A123A
:10079C008A112E200A128A115908353A031DDC2BB6
:1007AC0035300A128A112E200A128A115908363A4B
:1007BC00031DE62B36300A128A112E200A128A11DA
:1007CC005908373A031DF02B37300A128A112E20A4
:1007DC000A128A115908383A031DFA2B38300A12BA
:1007EC008A112E200A128A115908393A031D042C39
:1007FC0039300A128A112E200A128A1154300A1228
:10080C008A112E200A128A110A300A128A112E20FD
:10081C000A128A11DB2A2F08B1002E08FF002D08BE
:10082C0084000A168A1100260A128A11003803194C
:10083C0008003108FC003008FD002E08FF002D08D0
:10084C0084000A168A1100260A128A110B250A1234
:10085C008A116408B107AD0A0319AE0A132CA11B47
:10086C0008002108803AFF0080307F02031D402CD5
:10087C008030200203180800FD27A31B0800230862
:10088C00803AFF0080307F02031D4E2C4030220244
:10089C00031808000830F000F101FD272308F300CD
:1008AC002208F200C6240A128A117008F8002008E7
:1008BC00E1260A128A112408013A03197F2C033A03
:1008CC0003199D2C013A031D08000830F6270A1263
:1008DC008A11C6240A128A117008A5000730031069
:1008EC00A50DFF3E031D752C9030EA270A128A11C4
:1008FC00BE2C0830F6270A128A11C6240A128A1155
:10090C007008A50007300310A50DFF3E031D892CB0
:10091C009030EA270A128A11952C0310A80DFF3E7D
:10092C00031D932C2808831780040008C52E08305B
:10093C00F6270A128A11C6240A128A117008A50019
:10094C0007300310A50DFF3E031DA72C9030EA279E
:10095C000A128A11B32C0310A80DFF3E031DB12CF3
:10096C002808FF3A831780050008C52E0310A80D30
:10097C00FF3E031DBC2C2808831780060008C52EDB
:10098C00F501F11FD02CF009F109F00A0319F10A55
:10099C00F501F50AF31FD92CF209F309F20A031930
:1009AC00F30A0130F506F601F7017108700403191A
:1009BC00FE2CF401F40AF11BE72C0310F00DF10DE1
:1009CC00E02C0310F60DF70D71087302031DF02CCB
:1009DC0070087202031CFA2C7008F2027108031CD6
:1009EC00F303F30276140310F10CF00CF40BE72C68
:1009FC0075080319062DF609F709F60A0319F70A03
:100A0C007708F1007608F0000800A4007C08A90023
:100A1C00AA015F08DD005E08DC002408AB00AC0115
:100A2C006308AB02031CAC036208F200F301640818
:100A3C00F000F101AC260A128A112C08F3002B08E5
:100A4C00F200AC260A128A117108AC007008AB00D7
:100A5C00A701A8012C082802031D362D2B082702FC
:100A6C0003183F2DDC0A0319DD0AA70A0319A80A8B
:100A7C00302DA701A8016408A000A10121082802BB
:100A8C00031D4A2D20082702031808007D08A50025
:100A9C00A601AB01AC016208A000A10121082C0247
:100AAC00031D5A2D20082B020318972D00302A0203
:100ABC0080300319290203188D2D2508F800290808
:100ACC00E1265D08FF005C0884000A168A110026E6
:100ADC000A128A11C5265D08FF005C0884000A16FC
:100AEC008A1100260A128A11A0002508A1000730DD
:100AFC000310A10DFF3E031D7E2D90302107A20097
:100B0C0029082207A3008400200883178000A50A67
:100B1C000319A60ADC0A0319DD0AAB0A0319AC0A8D
:100B2C00512DA90A0319AA0AA70A0319A80A412DCB
:100B3C002E08C3002D08C2002908C2022A08031C73
:100B4C00C303C3023008C5002F08C4002B08C4021D
:100B5C002C08031CC503C502B401B501B601B701CD
:100B6C00BC01BD01B801B901C31FC02DFF30B400D9
:100B7C00B500CF2D4308803AFF0080307F02031D63
:100B8C00C92D01304202031CCF2DFD27B401B40A3C
:100B9C00B501FD27C51FD62DFF30B600B700E52DDA
:100BAC004508803AFF0080307F02031DDF2D0130A5
:100BBC004402031CE52DFD27B601B60AB701FD273B
:100BCC00C31FEC2DFF30BC00BD00FB2D4308803A49
:100BDC00FF0080307F02031DF52D01304202031C03
:100BEC00FB2DFD27BC01BC0ABD01FD27C31F0C2E2C
:100BFC00FF30F000F1004308F3004208F200AC268D
:100C0C000A128A117108C3007008C200C51F1C2E7D
:100C1C00FF30F000F1004508F3004408F200AC2668
:100C2C000A128A117108C5007008C4004308C1007B
:100C3C004208C0004508BF004408BE003F08803A87
:100C4C00FC004108803A7C02031D2E2E40083E0217
:100C5C00031C512EFD274508C1004408C000430861
:100C6C00BF004208BE00C51F3F2EFF30B800B900C0
:100C7C004E2E4508803AFF0080307F02031D482E1F
:100C8C0001304402031C4E2EFD27B801B80AB901ED
:100C9C00FD27BC01BD01FD274108BB004008BA007F
:100CAC003B0DBB0CBA0CB201B3014108803AFC00FD
:100CBC003308803A7C02031D652E32084002031C67
:100CCC000800FD272A08A1002908A0002C08A30071
:100CDC002B08A2003108A40035240A128A11FD2722
:100CEC003E08BA070318BB0A3F08BB073B08803A0B
:100CFC00FC004108803A7C02031D862E40083A0213
:100D0C00031C9B2EFD274008BA024108031CBB03A1
:100D1C00BB023408A9070318AA0A3508AA07360823
:100D2C00AB070318AC0A3708A72EFD273C08A90708
:100D3C000318AA0A3D08AA073808AB070318AC0A1F
:100D4C003908AC07B20A0319B30A5B2EF401F5019A
:100D5C00701CB62E7208F4070318F50A7308F50711
:100D6C000310F20DF30D0310F10CF00C710870046C
:100D7C00031DAE2E7508F1007408F0000800F30096
:100D8C00851285147308D2260A128A117108700410
:100D9C00031DC82E85160800F200FD2713088512C6
:100DAC00720893008316141CD82E83121308851610
:100DBC00F001F1010800FB00F9000F30F9057B0E82
:100DCC000F39FA000F30FA057A160730F805B030F3
:100DDC00F804790874270A128A117A0874270A12FF
:100DEC008A117808742F85168510051182270A122E
:100DFC008A1198270A128A11AE3074270A128A11A6
:100E0C00813074270A128A11CF3074270A128A1182
:100E1C00A43074270A128A11A63074270A128A1178
:100E2C00203074270A128A11023074270A128A1190
:100E3C00003074270A128A11103074270A128A1192
:100E4C00B03074270A128A11403074270A128A11A2
:100E5C00A13074270A128A11A83074270A128A1139
:100E6C003F3074270A128A11C83074270A128A116B
:100E7C00D33074270A128A11003074270A128A118F
:100E8C00DA3074270A128A11123074270A128A1166
:100E9C00D53074270A128A11803074270A128A11ED
:100EAC00D93074270A128A11F13074270A128A1168
:100EBC00DB3074270A128A11403074270A128A1107
:100ECC008D3074270A128A11143074270A128A1171
:100EDC00AF3074270A128A110030A32FF300FD27BC
:100EEC00851285107308D2260A128A1171087004B3
:100EFC00031D782F85160800F201F3010630F1006E
:100F0C003030F000F00B882FF10B882F6400F20AC0
:100F1C000319F30A01307302F43003197202031837
:100F2C000800842FFD27051182270A128A118227B7
:100F3C000A128A11FD270515822FFD27A200A00198
:100F4C00A101A4012408F8000030E1260A128A113C
:100F5C00A3012208C5260A128A112008903E84009B
:100F6C00220883178000A00A0319A10AA30A803063
:100F7C002302031CAF2FCA270A128A11A40A0830B5
:100F8C00240203180800A82F05100730F2001130B6
:100F9C00F1006D30F000F00BD12FF10BD12FF20BD3
:100FAC00D12F6400FD2705140730F2001130F10039
:100FBC006D30F000F00BE02FF10BE02FF20BE02F77
:100FCC006400FD270510CA2F2507A6002008260758
:100FDC00A70084000130A80022080739013E080050
:100FEC00F000F1012308F3002208F200080083123C
:040FFC0003130800D3
:101C9200831203138601F030831686008113080035
:101CA20064008001840A0406031900340406522EDB
:101CB2008312851683161408223083129404941614
:101CC2000800710883120313DF007008DE00720837
:101CD200E4007308F6000310F60C0310F60C031070
:101CE200F60C7608E2007408E3000800F100F30144
:101CF20070080319902EF201F20AF01B832E0310D2
:101D0200F00D7D2E0310F30D70087102031C8D2E51
:101D12007008F10273140310F00CF20B832E730897
:101D22000800F2000830F300F4017208F1000730F5
:101D32000310F10CFF3E0310031D9A2E740D710463
:101D4200F4000310F20D70087402031CAA2E70082E
:101D5200F402F30B962E7408080083135A308400A1
:101D620065300A128A1551260A128A15A03084009B
:101D7200C8300A128A1551260A128A158317903022
:101D82008400EA300A128A15512683010A128A1146
:101D9200C329CD26F3000800061086140615861501
:101DA200061AE32E0630F2000E30F100B030F000D9
:101DB200F00BD92EF10BD92EF20BD92EFD27061AD4
:101DC2003734DF2E861AF52E0630F2000E30F1007F
:101DD200B030F000F00BEB2EF10BEB2EF20BEB2EF2
:101DE200FD27861A3834F12E061B072F0630F20023
:101DF2000E30F100B030F000F00BFD2EF10BFD2E95
:101E0200F20BFD2EFD27061B3934032F861B192FDB
:101E12000630F2000E30F100B030F000F00B0F2F60
:101E2200F10B0F2FF20B0F2FFD27861B2F34152FCF
:101E32000614861006158615061A2F2F0630F20094
:101E42000E30F100B030F000F00B252FF10B252FF2
:101E5200F20B252FFD27061A34342B2F861A412F19
:101E62000630F2000E30F100B030F000F00B372FE8
:101E7200F10B372FF20B372FFD27861A35343D2F02
:101E8200061B532F0630F2000E30F100B030F00086
:101E9200F00B492FF10B492FF20B492FFD27061B9F
:101EA20036344F2F861B652F0630F2000E30F100BC
:101EB200B030F000F00B5B2FF10B5B2FF20B5B2FBE
:101EC200FD27861B7834612F0614861406118615A9
:101ED200061A7B2F0630F2000E30F100B030F0000F
:101EE200F00B712FF10B712FF20B712FFD27061AD8
:101EF2003134772F861A8D2F0630F2000E30F10022
:101F0200B030F000F00B832FF10B832FF20B832FF5
:101F1200FD27861A3234892F061B9F2F0630F200C6
:101F22000E30F100B030F000F00B952FF10B952F31
:101F3200F20B952FFD27061B33349B2F861BB12FE7
:101F42000630F2000E30F100B030F000F00BA72F97
:101F5200F10BA72FF20BA72FFD27861B2D34AD2FD8
:101F62000614861406158611061AC72F0630F200CB
:101F72000E30F100B030F000F00BBD2FF10BBD2F91
:101F8200F20BBD2FFD27061A4334C32F861AD92F11
:101F92000630F2000E30F100B030F000F00BCF2F1F
:101FA200F10BCF2FF20BCF2FFD27861A3034D52F0E
:101FB200061BEB2F0630F2000E30F100B030F000BD
:101FC200F00BE12FF10BE12FF20BE12FFD27061BA6
:101FD2003D34E72F861B6E340630F2000E30F100DE
:101FE200B030F000F00BF32FF10BF32FF20BF32FC5
:0E1FF200FD27861B2B34F92F831203130800E2
:102C0000FF1B0A2E83137F1883170008840A0319F9
:102C1000FF0A08007F087F398A000408840A031924
:102C2000FF0A8200003400340034003400340034E1
:102C300000340034003400340034003400340034F4
:102C400000340034003400340034003400340034E4
:102C500000340034003400340034003400340034D4
:102C600000340034F8340034FE346734FE34673402
:102C7000F8340034003400340034003400340034BC
:102C800000340034003400340034003400340034A4
:102C90003C3400343C34003400340034003400341C
:102CA0003C3400343C34003400340034003400340C
:102CB00000340034003400340034043420343C3414
:102CC00020343F34E0340734FC3404343C343C34A6
:102CD00020343F34E0340734FC3404343C340034D2
:102CE000203400340034003400340034F03408342C
:102CF000F834193498341934FE347F34FE347F3478
:102D00009834193498341F3410340F34003400349C
:102D10000034003400340034003430343834383473
:102D200038341C3438340E340034073480340334DF
:102D3000C0340134E0343834703438343834383402
:102D400000340034003400340034003400341F34C4
:102D5000B8343F34FC343134C6342134E2343734AF
:102D60003E341E341C341C340034363400342234D7
:102D700000340034003400340034003400340034B3
:102D8000003400344E3400347E3400343E34003499
:102D90000034003400340034003400340034003493
:102DA0000034003400340034003400340034003483
:102DB000E0340734F8341F34FC343F340E347034BC
:102DC00002344034023440340034003400340034DF
:102DD0000034003400340034003400340034003453
:102DE00002344034023440340E347034FC343F3406
:102DF000F8341F34E0340734003400340034003435
:102E000000340034003400340034003498340C347E
:102E1000B8340E34E0340334F8340F34F8340F345B
:102E2000E0340334B8340E3498340C3400340034B5
:102E30000034003400340034003400348034013471
:102E40008034013480340134F0340F34F0340F34E2
:102E5000803401348034013480340134003400344F
:102E600000340034003400340034003400340034C2
:102E70000034003400345C3400347C3400343C349E
:102E800000340034003400340034003400340034A2
:102E90000034003400340034003400348034013411
:102EA000803401348034013480340134803401347E
:102EB00080340134803401348034013400340034EF
:102EC0000034003400340034003400340034003462
:102ED00000340034003438340034383400343834AA
:102EE0000034003400340034003400340034003442
:102EF00000340034003400340034183400341C34FE
:102F000000340E340034073480340334C0340134C8
:102F1000E034003470340034383400341C3400346D
:102F20000034003400340034F0340F34FC343F34C7
:102F30000C343C34063466340634633486346134ED
:102F4000C6346034663460343C343034FC343F344E
:102F5000F0340F340034003400340034183460345A
:102F6000183460341C346034FE347F34FE347F34D3
:102F70000034603400346034003460340034003491
:102F80000034003400340034383460343C3470345D
:102F90000E34783406347C3406346E3406346734A8
:102FA00086346334C6346134EE3460347C34603447
:102FB0003834603400340034183418341C34383455
:102FC0000E3470348634613486346134863461342E
:102FD0008634613486346134CE347334FC343E3408
:102FE00078341C340034003480340734C03407345F
:102FF000E034063470340634383406341C34063475
:103000000E340634FE347F34FE347F34003406340C
:1030100000340634003400347E341834FE3438343E
:10302000C6347034C6346034C6346034C634603458
:10303000C6346034C6346034C634713486343F34A8
:1030400006341F340034003480341F34E0343F34FD
:10305000F0347334B83461349C3461348E34613468
:1030600086346134863461348634733400343F34BA
:1030700000341E3400340034063400340634003486
:1030800006340034063460340634783406341E3492
:1030900086340734E63401347E3400341E34003480
:1030A000063400340034003400341E3478343F34A5
:1030B000FC347334CE346134863461348634613404
:1030C00086346134CE346134FC34733478343F3424
:1030D00000341E340034003478340034FC340034BE
:1030E000CE3461348634613486346134863471344C
:1030F0008634393486341D34CE340F34FC340734EE
:10310000F834013400340034003400340034003426
:103110000034003470341C3470341C3470341C346B
:1031200000340034003400340034003400340034FF
:1031300000340034003400340034003400340034EF
:103140000034003438344E3438347E3438343E342D
:1031500000340034003400340034003400340034CF
:10316000003400340034003400340034803401343E
:10317000C0340334E034073470340E3438341C3433
:103180001C3438340E347034063460340034003467
:103190000034003400340034003400346034063429
:1031A00060340634603406346034063460340634E7
:1031B00060340634603406346034063460340634D7
:1031C00000340034003400340034003406346034F9
:1031D0000E3470341C34383438341C3470340E34AB
:1031E000E0340734C0340334803401340034003414
:1031F0000034003400340034383400343C340034BB
:103200000E3400340634003406346F3486346F34A0
:10321000C6340134EE3400347C34003438340034A5
:103220000034003400340034F0341F34FC343F34B4
:103230000E343034E6346734F6346F3436346C345C
:10324000F6346F34F6346F340E346C34FC34073497
:10325000F0340334003400340034703400347E34ED
:10326000C0340F34F8340D343E340C343E340C3456
:10327000F8340D34C0340F3400347E3400347034EC
:103280000034003400340034FE347F34FE347F34A4
:1032900086346134863461348634613486346134F2
:1032A000CE346134FC34733478343F3400341E340B
:1032B0000034003400340034E0340734F8341F3470
:1032C0001C3438340E3470340634603406346034C0
:1032D000063460340E3470341C34383418341834E6
:1032E0000034003400340034FE347F34FE347F3444
:1032F0000634603406346034063460340634603496
:103300000E3470341C343834F8341F34E03407344D
:103310000034003400340034FE347F34FE347F3413
:103320008634613486346134863461348634613461
:103330008634613486346134063460340634603453
:103340000034003400340034FE347F34FE347F34E3
:1033500086340134863401348634013486340134B1
:1033600086340134863401340634003406340034A3
:103370000034003400340034E0340734F8341F34AF
:103380001C3438340E34703406346034863461347E
:1033900086346134863461348E347F348C347F34A7
:1033A0000034003400340034FE347F34FE347F3483
:1033B0008034013480340134803401348034013469
:1033C0008034013480340134FE347F34FE347F3461
:1033D000003400340034003400340034003400344D
:1033E0000634603406346034FE347F34FE347F3477
:1033F0000634603406346034003400340034003461
:10340000003400340034003400341C3400343C34C4
:10341000003470340034603400346034003460347C
:103420000034603400347034FE343F34FE340F34E2
:103430000034003400340034FE347F34FE347F34F2
:1034400080340134C0340334E034073470340E3433
:1034500038341C341C3438340E3470340634603440
:103460000034003400340034FE347F34FE347F34C2
:10347000003460340034603400346034003460342C
:10348000003460340034603400346034003460341C
:103490000034003400340034FE347F34FE347F3492
:1034A0003C340034F0340034C0340334C0340334CA
:1034B000F03400343C340034FE347F34FE347F3446
:1034C0000034003400340034FE347F34FE347F3462
:1034D0001C34003470340034E03401348034073458
:1034E00000340E3400343834FE347F34FE347F34FC
:1034F0000034003400340034E0340734F8341F342E
:103500001C3438340E34703406346034063460347D
:103510000E3470341C343834F8341F34E03407343B
:103520000034003400340034FE347F34FE347F3401
:1035300006340334063403340634033406340334C7
:10354000063403348E340334FC340134F83400344C
:103550000034003400340034E0340734F8341F34CD
:103560001C3438340E3470340634603406346C3411
:103570000E347C341C343834F8347F34E03467340F
:103580000034003400340034FE347F34FE347F34A1
:1035900006340334063403340634073406340F3457
:1035A00006341F348E343B34FC347134F8346034C8
:1035B000003400340034003478341834FC343834A7
:1035C000CE34713486346134863461348634613467
:1035D000863461348E3473341C343F3418341E34D2
:1035E0000034003400340034003400340634003435
:1035F0000634003406340034FE347F34FE347F3425
:103600000634003406340034063400340034003408
:103610000034003400340034FE340F34FE343F34C0
:10362000003470340034603400346034003460346A
:103630000034603400347034FE343F34FE340F34D0
:1036400000340034003400340E3400347E3400344E
:10365000F034033480341F3400347C3400347C3440
:1036600080341F34F03403347E3400340E3400349C
:103670000034003400340034FE347F34FE347F34B0
:103680000034383400340C34003407340034073448
:1036900000340C3400343834FE347F34FE347F344C
:1036A0000034003400340034063460341E3478347E
:1036B00038341C3460340634C0340334C03403342A
:1036C0006034063438341C341E34783406346034A4
:1036D0000034003400340034063400341E34003426
:1036E00078340034E034013480347F3480347F34E3
:1036F000E0340134783400341E34003406340034AD
:103700000034003400340034063460340634783435
:1037100006347C340634663486346334C63461340B
:10372000663460343E3460341E34603406346034B1
:1037300000340034003400340034003400340034E9
:10374000FE347F34FE347F34063460340634603413
:1037500006346034063460340034003400340034FD
:1037600000340034003400341C3400343834003465
:1037700070340034E0340034C03401348034033415
:103780000034073400340E3400341C340034383430
:103790000034003400340034003400340034003489
:1037A00006346034063460340634603406346034E1
:1037B000FE347F34FE347F3400340034003400346F
:1037C0000034003400340034C0340034E0340034B9
:1037D00070340034383400341C3400340E34003477
:1037E0001C3400343834003470340034E034003495
:1037F000C0340034003400340034603400346034A9
:103800000034603400346034003460340034603498
:103810000034603400346034003460340034603488
:1038200000340034003400340034003400340034F8
:1038300000340034003400343E3400347E3400342C
:103840004E3400340034003400340034003400348A
:10385000003400340034003400341C3440343E342E
:10386000603433346034333460343334603433346C
:103870006034333460343334E0343F34C0343F3464
:103880000034003400340034FE347F34FE347F349E
:1038900080346134C0346034C0346034C034603447
:1038A000C0346034C034713480343F3400341F3449
:1038B000003400340034003480340F34C0341F34FA
:1038C000E034383460343034603430346034303490
:1038D0006034303460343034C034183480340834C8
:1038E000003400340034003400341F3480343F345A
:1038F000C0347134C0346034C0346034C034603497
:10390000C034613480346134FE347F34FE347F341B
:10391000003400340034003480340F34C0341F3499
:10392000E0343B3460343334603433346034333423
:103930006034333460343334C0341334803401346D
:103940000034003400340034003400348034013456
:1039500080340134F8347F34FC347F348E340134C5
:1039600086340134863401340634003400340034A3
:103970000034003400340034C0340134E0346334A3
:1039800070346734303466343034663430346634FE
:103990003034663430347334F0343F34F0341F3410
:1039A0000034003400340034FE347F34FE347F347D
:1039B00080340134C0340034C0340034C0340034A6
:1039C000C034013480347F3400347F340034003418
:1039D0000034003400340034003400340034003447
:1039E0000034303460343034EC343F34EC343F3421
:1039F00000343034003430340034003400340034C7
:103A00000034003400340034003400340034003416
:103A10000034303400347034003460343034603476
:103A2000F6347F34F6343F3400340034003400344C
:103A3000003400340034003400340034FE347F3469
:103A4000FE347F340034063400340F3480341F34A5
:103A5000C0343934C034703400346034003400343D
:103A600000340034003400340034003400340034B6
:103A70000034603406346034FE347F34FE347F34E6
:103A800000346034003460340034003400340034D6
:103A90000034003400340034E0343F34C0343F3468
:103AA000E0340034E0340034C0343F34C0343F34B8
:103AB000E0340034E0340034C0343F3480343F34E8
:103AC000003400340034003400340034E0343F3437
:103AD000E0343F3460340034603400346034003407
:103AE00060340034E0340034C0343F3480343F3438
:103AF000003400340034003480340F34C0341F34B8
:103B0000E03438346034303460343034603430344D
:103B100060343034E0343834C0341F3480340F34EF
:103B20000034003400340034F0347F34F0347F3417
:103B30003034063430340C3430340C3430340C34FB
:103B400030340C3470340E34E0340734C034033471
:103B50000034003400340034C0340334E03407341B
:103B600070340E3430340C3430340C3430340C3483
:103B700030340C3430340634F0347F34F0347F3455
:103B8000003400340034003400340034E0343F3476
:103B9000E0343F34C03400346034003460340034E6
:103BA0006034003460340034E0340034C034003415
:103BB000003400340034003400340034C034113494
:103BC000E034333460343334603433346034333489
:103BD0006034333460343F3440341E3400340034B5
:103BE00000340034003400340034003460340034D5
:103BF00060340034FE341F34FE343F3460343034DB
:103C000060343034603430340034303400340034C4
:103C10000034003400340034E0340F34E0341F3416
:103C2000003438340034303400343034003430342C
:103C30000034303400341834E0343F34E0343F345E
:103C4000003400340034003460340034E034013493
:103C50008034073400341E340034383400343834AF
:103C600000341E3480340734E034013460340034CE
:103C70000034003400340034E0340734E0341F34BE
:103C80000034383400341C34E0340F34E0340F3462
:103C900000341C3400343834E0341F34E03407344A
:103CA000003400340034003460343034E0343834CC
:103CB000C0341D3480340F340034073480340F3462
:103CC000C0341D34E03438346034303400340034CF
:103CD0000034003400340034003400343034003414
:103CE000F0344034C034733400343F3400340F3483
:103CF000C0340334F0340034303400340034003441
:103D000000340034003400346034303460343834EB
:103D100060343C346034363460343334E03431342D
:103D2000E034303460343034203430340034003403
:103D30000034003400340034003400348034003463
:103D4000C0340134FC341F347E343F3407347034C3
:103D5000033460340334603403346034003400349A
:103D600000340034003400340034003400340034B3
:103D700000340034003400347E347F347E347F34A9
:103D80000034003400340034003400340034003493
:103D90000034003400340034003400340334603420
:103DA0000334603403346034073470347E343F3479
:103DB000FC341F34C0340134803400340034003407
:103DC000003400340034003410340034183400342B
:103DD0000C340034043400340C340034183400340F
:103DE00010340034183400340C34003404340034FB
:103DF000003400340034003400340F3480340F3485
:103E0000C0340C3460340C3430340C3430340C3462
:103E100060340C34C0340C3480340F3400340F342C
:103E2000003400344E346F342034733465346E34CF
:103E300073346F347234203466346F3475346E34B6
:103E400064342034003443346F346E34663469345F
:103E50006734203463346F346D3470346C346534BB
:103E60007434653464340034203465346934673420
:103E70006834743479342034723465346134633492
:103E8000683465346434003443346F346E346634DB
:103E90006934673420344334433432343534303475
:103EA00030340034203444344834543431343134E0
:103EB000443465346D346F34203400344F344C3422
:103EC0004534443420343134323438347834363460
:103ED000343400346C346934623472346134723492
:103EE0007934203466346F347234003452344634BA
:103EF0002034523445344D344F3454344534003436
:103F000020344534723472346F34723420340034C7
:103F1000533453344434313433343034363400344D
:103F20004734723461347034683469346334003433
:103F30002034683475346D34203400346C34693482
:103F40006E34653473340034543465346D347034F5
:0A3F5000003442344D344434003490
:02400E002A2F57
:00000001FF
